{"abi":[{"type":"constructor","inputs":[],"stateMutability":"nonpayable"},{"type":"function","name":"allowance","inputs":[{"name":"","type":"address","internalType":"address"},{"name":"","type":"address","internalType":"address"}],"outputs":[{"name":"","type":"uint256","internalType":"uint256"}],"stateMutability":"view"},{"type":"function","name":"approve","inputs":[{"name":"spender","type":"address","internalType":"address"},{"name":"amount","type":"uint256","internalType":"uint256"}],"outputs":[{"name":"","type":"bool","internalType":"bool"}],"stateMutability":"nonpayable"},{"type":"function","name":"balanceOf","inputs":[{"name":"","type":"address","internalType":"address"}],"outputs":[{"name":"","type":"uint256","internalType":"uint256"}],"stateMutability":"view"},{"type":"function","name":"decimals","inputs":[],"outputs":[{"name":"","type":"uint8","internalType":"uint8"}],"stateMutability":"view"},{"type":"function","name":"mint","inputs":[{"name":"to","type":"address","internalType":"address"},{"name":"amount","type":"uint256","internalType":"uint256"}],"outputs":[],"stateMutability":"nonpayable"},{"type":"function","name":"name","inputs":[],"outputs":[{"name":"","type":"string","internalType":"string"}],"stateMutability":"view"},{"type":"function","name":"owner","inputs":[],"outputs":[{"name":"","type":"address","internalType":"address"}],"stateMutability":"view"},{"type":"function","name":"registry","inputs":[],"outputs":[{"name":"","type":"address","internalType":"address"}],"stateMutability":"view"},{"type":"function","name":"setRegistry","inputs":[{"name":"registry_","type":"address","internalType":"address"}],"outputs":[],"stateMutability":"nonpayable"},{"type":"function","name":"symbol","inputs":[],"outputs":[{"name":"","type":"string","internalType":"string"}],"stateMutability":"view"},{"type":"function","name":"totalSupply","inputs":[],"outputs":[{"name":"","type":"uint256","internalType":"uint256"}],"stateMutability":"view"},{"type":"function","name":"transfer","inputs":[{"name":"to","type":"address","internalType":"address"},{"name":"amount","type":"uint256","internalType":"uint256"}],"outputs":[{"name":"","type":"bool","internalType":"bool"}],"stateMutability":"nonpayable"},{"type":"function","name":"transferFrom","inputs":[{"name":"from","type":"address","internalType":"address"},{"name":"to","type":"address","internalType":"address"},{"name":"amount","type":"uint256","internalType":"uint256"}],"outputs":[{"name":"","type":"bool","internalType":"bool"}],"stateMutability":"nonpayable"},{"type":"event","name":"Approval","inputs":[{"name":"owner_","type":"address","indexed":true,"internalType":"address"},{"name":"spender","type":"address","indexed":true,"internalType":"address"},{"name":"value","type":"uint256","indexed":false,"internalType":"uint256"}],"anonymous":false},{"type":"event","name":"RegistrySet","inputs":[{"name":"registry_","type":"address","indexed":true,"internalType":"address"}],"anonymous":false},{"type":"event","name":"Transfer","inputs":[{"name":"from","type":"address","indexed":true,"internalType":"address"},{"name":"to","type":"address","indexed":true,"internalType":"address"},{"name":"value","type":"uint256","indexed":false,"internalType":"uint256"}],"anonymous":false}],"bytecode":{"object":"0x608060405234801561001057600080fd5b50600480546001600160a01b0319163317905561088e806100326000396000f3fe608060405234801561001057600080fd5b50600436106100cf5760003560e01c806370a082311161008c57806395d89b411161006657806395d89b41146101f7578063a9059cbb1461021b578063a91ee0dc1461022e578063dd62ed3e1461024157600080fd5b806370a08231146101995780637b103999146101b95780638da5cb5b146101e457600080fd5b806306fdde03146100d4578063095ea7b31461011d57806318160ddd1461014057806323b872dd14610157578063313ce5671461016a57806340c10f1914610184575b600080fd5b6101076040518060400160405280601481526020017322bb37a33930b6b29029b5b4b636102a37b5b2b760611b81525081565b60405161011491906106f6565b60405180910390f35b61013061012b366004610761565b61026c565b6040519015158152602001610114565b61014960005481565b604051908152602001610114565b61013061016536600461078b565b6102d9565b610172601281565b60405160ff9091168152602001610114565b610197610192366004610761565b610494565b005b6101496101a73660046107c7565b60016020526000908152604090205481565b6003546101cc906001600160a01b031681565b6040516001600160a01b039091168152602001610114565b6004546101cc906001600160a01b031681565b6101076040518060400160405280600581526020016414d2d2531360da1b81525081565b610130610229366004610761565b610576565b61019761023c3660046107c7565b61065a565b61014961024f3660046107e9565b600260209081526000928352604080842090915290825290205481565b3360008181526002602090815260408083206001600160a01b038716808552925280832085905551919290917f8c5be1e5ebec7d5bd14f71427d1e84f3dd0314c0f7b2291e5b200ac8c7c3b925906102c79086815260200190565b60405180910390a35060015b92915050565b6001600160a01b03831660009081526001602052604081205482111561033d5760405162461bcd60e51b8152602060048201526014602482015273696e73756666696369656e742062616c616e636560601b60448201526064015b60405180910390fd5b6001600160a01b03841660009081526002602090815260408083203384529091529020548211156103a95760405162461bcd60e51b8152602060048201526016602482015275696e73756666696369656e7420616c6c6f77616e636560501b6044820152606401610334565b6001600160a01b0384166000908152600260209081526040808320338452909152812080548492906103dc908490610832565b90915550506001600160a01b03841660009081526001602052604081208054849290610409908490610832565b90915550506001600160a01b03831660009081526001602052604081208054849290610436908490610845565b92505081905550826001600160a01b0316846001600160a01b03167fddf252ad1be2c89b69c2b068fc378daa952ba7f163c4a11628f55a4df523b3ef8460405161048291815260200190565b60405180910390a35060019392505050565b6003546001600160a01b031633146104ee5760405162461bcd60e51b815260206004820152601860248201527f536b696c6c546f6b656e3a206e6f7420726567697374727900000000000000006044820152606401610334565b806000808282546104ff9190610845565b90915550506001600160a01b0382166000908152600160205260408120805483929061052c908490610845565b90915550506040518181526001600160a01b038316906000907fddf252ad1be2c89b69c2b068fc378daa952ba7f163c4a11628f55a4df523b3ef9060200160405180910390a35050565b336000908152600160205260408120548211156105cc5760405162461bcd60e51b8152602060048201526014602482015273696e73756666696369656e742062616c616e636560601b6044820152606401610334565b33600090815260016020526040812080548492906105eb908490610832565b90915550506001600160a01b03831660009081526001602052604081208054849290610618908490610845565b90915550506040518281526001600160a01b0384169033907fddf252ad1be2c89b69c2b068fc378daa952ba7f163c4a11628f55a4df523b3ef906020016102c7565b6004546001600160a01b031633146106ac5760405162461bcd60e51b815260206004820152601560248201527429b5b4b6362a37b5b2b71d103737ba1037bbb732b960591b6044820152606401610334565b600380546001600160a01b0319166001600160a01b0383169081179091556040517f27fe5f0c1c3b1ed427cc63d0f05759ffdecf9aec9e18d31ef366fc8a6cb5dc3b90600090a250565b60006020808352835180602085015260005b8181101561072457858101830151858201604001528201610708565b506000604082860101526040601f19601f8301168501019250505092915050565b80356001600160a01b038116811461075c57600080fd5b919050565b6000806040838503121561077457600080fd5b61077d83610745565b946020939093013593505050565b6000806000606084860312156107a057600080fd5b6107a984610745565b92506107b760208501610745565b9150604084013590509250925092565b6000602082840312156107d957600080fd5b6107e282610745565b9392505050565b600080604083850312156107fc57600080fd5b61080583610745565b915061081360208401610745565b90509250929050565b634e487b7160e01b600052601160045260246000fd5b818103818111156102d3576102d361081c565b808201808211156102d3576102d361081c56fea264697066735822122078659f79479b0efda79d38b679f6a42dab6e2f35417624442745c6395341c10964736f6c63430008180033","linkReferences":{}},"methodIdentifiers":{"allowance(address,address)":"dd62ed3e","approve(address,uint256)":"095ea7b3","balanceOf(address)":"70a08231","decimals()":"313ce567","mint(address,uint256)":"40c10f19","name()":"06fdde03","owner()":"8da5cb5b","registry()":"7b103999","setRegistry(address)":"a91ee0dc","symbol()":"95d89b41","totalSupply()":"18160ddd","transfer(address,uint256)":"a9059cbb","transferFrom(address,address,uint256)":"23b872dd"},"id":1}