{"abi":[{"type":"constructor","inputs":[],"stateMutability":"nonpayable"},{"type":"function","name":"DOMAIN_CODING","inputs":[],"outputs":[{"name":"","type":"uint8","internalType":"uint8"}],"stateMutability":"view"},{"type":"function","name":"DOMAIN_COMMUNICATION","inputs":[],"outputs":[{"name":"","type":"uint8","internalType":"uint8"}],"stateMutability":"view"},{"type":"function","name":"DOMAIN_DATA_ANALYSIS","inputs":[],"outputs":[{"name":"","type":"uint8","internalType":"uint8"}],"stateMutability":"view"},{"type":"function","name":"DOMAIN_GENERAL","inputs":[],"outputs":[{"name":"","type":"uint8","internalType":"uint8"}],"stateMutability":"view"},{"type":"function","name":"DOMAIN_PLANNING","inputs":[],"outputs":[{"name":"","type":"uint8","internalType":"uint8"}],"stateMutability":"view"},{"type":"function","name":"DOMAIN_REASONING","inputs":[],"outputs":[{"name":"","type":"uint8","internalType":"uint8"}],"stateMutability":"view"},{"type":"function","name":"DOMAIN_RESEARCH","inputs":[],"outputs":[{"name":"","type":"uint8","internalType":"uint8"}],"stateMutability":"view"},{"type":"function","name":"DOMAIN_WEB_BROWSING","inputs":[],"outputs":[{"name":"","type":"uint8","internalType":"uint8"}],"stateMutability":"view"},{"type":"function","name":"REWARD_PER_IMPORT","inputs":[],"outputs":[{"name":"","type":"uint256","internalType":"uint256"}],"stateMutability":"view"},{"type":"function","name":"getLineage","inputs":[{"name":"skillId","type":"bytes32","internalType":"bytes32"}],"outputs":[{"name":"chain","type":"bytes32[]","internalType":"bytes32[]"}],"stateMutability":"view"},{"type":"function","name":"getTopSkills","inputs":[{"name":"domain","type":"uint8","internalType":"uint8"},{"name":"offset","type":"uint256","internalType":"uint256"},{"name":"limit","type":"uint256","internalType":"uint256"}],"outputs":[{"name":"result","type":"bytes32[]","internalType":"bytes32[]"},{"name":"total","type":"uint256","internalType":"uint256"}],"stateMutability":"view"},{"type":"function","name":"owner","inputs":[],"outputs":[{"name":"","type":"address","internalType":"address"}],"stateMutability":"view"},{"type":"function","name":"pendingRewards","inputs":[{"name":"","type":"address","internalType":"address"}],"outputs":[{"name":"","type":"uint256","internalType":"uint256"}],"stateMutability":"view"},{"type":"function","name":"recordImport","inputs":[{"name":"skillId","type":"bytes32","internalType":"bytes32"},{"name":"importingAgent","type":"address","internalType":"address"}],"outputs":[],"stateMutability":"nonpayable"},{"type":"function","name":"registerSkill","inputs":[{"name":"skillId","type":"bytes32","internalType":"bytes32"},{"name":"parentId","type":"bytes32","internalType":"bytes32"},{"name":"storageHash","type":"string","internalType":"string"},{"name":"name","type":"string","internalType":"string"},{"name":"domain","type":"uint8","internalType":"uint8"},{"name":"generation","type":"uint32","internalType":"uint32"},{"name":"fitnessScore","type":"uint32","internalType":"uint32"}],"outputs":[],"stateMutability":"nonpayable"},{"type":"function","name":"setSkillToken","inputs":[{"name":"tokenAddress","type":"address","internalType":"address"}],"outputs":[],"stateMutability":"nonpayable"},{"type":"function","name":"skillTokenAddress","inputs":[],"outputs":[{"name":"","type":"address","internalType":"address"}],"stateMutability":"view"},{"type":"function","name":"skills","inputs":[{"name":"","type":"bytes32","internalType":"bytes32"}],"outputs":[{"name":"skillId","type":"bytes32","internalType":"bytes32"},{"name":"parentId","type":"bytes32","internalType":"bytes32"},{"name":"originAgent","type":"address","internalType":"address"},{"name":"storageHash","type":"string","internalType":"string"},{"name":"name","type":"string","internalType":"string"},{"name":"domain","type":"uint8","internalType":"uint8"},{"name":"generation","type":"uint32","internalType":"uint32"},{"name":"fitnessScore","type":"uint32","internalType":"uint32"},{"name":"usageCount","type":"uint64","internalType":"uint64"},{"name":"createdAt","type":"uint64","internalType":"uint64"},{"name":"active","type":"bool","internalType":"bool"}],"stateMutability":"view"},{"type":"function","name":"totalSkills","inputs":[],"outputs":[{"name":"","type":"uint256","internalType":"uint256"}],"stateMutability":"view"},{"type":"function","name":"transferOwnership","inputs":[{"name":"newOwner","type":"address","internalType":"address"}],"outputs":[],"stateMutability":"nonpayable"},{"type":"function","name":"updateFitness","inputs":[{"name":"skillId","type":"bytes32","internalType":"bytes32"},{"name":"newScore","type":"uint32","internalType":"uint32"}],"outputs":[],"stateMutability":"nonpayable"},{"type":"event","name":"FitnessUpdated","inputs":[{"name":"skillId","type":"bytes32","indexed":true,"internalType":"bytes32"},{"name":"newFitnessScore","type":"uint32","indexed":false,"internalType":"uint32"}],"anonymous":false},{"type":"event","name":"SkillImported","inputs":[{"name":"skillId","type":"bytes32","indexed":true,"internalType":"bytes32"},{"name":"importingAgent","type":"address","indexed":true,"internalType":"address"},{"name":"originAgent","type":"address","indexed":true,"internalType":"address"},{"name":"rewardAmount","type":"uint256","indexed":false,"internalType":"uint256"}],"anonymous":false},{"type":"event","name":"SkillRegistered","inputs":[{"name":"skillId","type":"bytes32","indexed":true,"internalType":"bytes32"},{"name":"parentId","type":"bytes32","indexed":true,"internalType":"bytes32"},{"name":"originAgent","type":"address","indexed":true,"internalType":"address"},{"name":"name","type":"string","indexed":false,"internalType":"string"},{"name":"domain","type":"uint8","indexed":false,"internalType":"uint8"},{"name":"generation","type":"uint32","indexed":false,"internalType":"uint32"},{"name":"fitnessScore","type":"uint32","indexed":false,"internalType":"uint32"},{"name":"storageHash","type":"string","indexed":false,"internalType":"string"}],"anonymous":false},{"type":"event","name":"SkillRetired","inputs":[{"name":"skillId","type":"bytes32","indexed":true,"internalType":"bytes32"},{"name":"successorId","type":"bytes32","indexed":true,"internalType":"bytes32"}],"anonymous":false}],"bytecode":{"object":"0x608060405234801561001057600080fd5b50600580546001600160a01b0319163317905561195e806100326000396000f3fe608060405234801561001057600080fd5b50600436106101375760003560e01c80634d253ae8116100b85780639774630d1161007c5780639774630d14610265578063b839e86814610273578063d969878d14610294578063db7be76c1461029c578063ee3dadbd146102a5578063f2fde38b146102cf57600080fd5b80634d253ae81461021c57806359c6960a1461022f57806383634b931461024257806387a374f91461024a5780638da5cb5b1461025257600080fd5b806331d7a262116100ff57806331d7a262146101b6578063320f2a05146101e45780633bc06c06146101ec5780633c6db1d3146101f457806349f2d22c146101fc57600080fd5b80630a4d53601461013c57806317adc5651461016c57806321d6f4be146101865780632c3273f61461019b5780632d2bfd6d146101ae575b600080fd5b60045461014f906001600160a01b031681565b6040516001600160a01b0390911681526020015b60405180910390f35b610174600181565b60405160ff9091168152602001610163565b61019961019436600461136e565b6102e2565b005b6101996101a9366004611438565b6107e0565b610174600381565b6101d66101c4366004611438565b60026020526000908152604090205481565b604051908152602001610163565b610174600281565b610174600781565b610174600481565b61020f61020a36600461145a565b610857565b60405161016391906114af565b61019961022a3660046114c2565b61094e565b61019961023d3660046114ee565b610ad7565b610174600081565b610174600581565b60055461014f906001600160a01b031681565b6101d6662386f26fc1000081565b610286610281366004611511565b610d03565b604051610163929190611544565b610174600681565b6101d660035481565b6102b86102b336600461145a565b61109b565b6040516101639b9a999897969594939291906115ac565b6101996102dd366004611438565b61122f565b600089815260208190526040902060050154600160881b90046001600160401b0316156103665760405162461bcd60e51b815260206004820152602760248201527f536b696c6c52656769737472793a20736b696c6c20616c7265616479207265676044820152661a5cdd195c995960ca1b60648201526084015b60405180910390fd5b60648163ffffffff1611156103c95760405162461bcd60e51b8152602060048201526024808201527f536b696c6c52656769737472793a20696e76616c6964206669746e6573732073604482015263636f726560e01b606482015260840161035d565b600760ff8416111561041d5760405162461bcd60e51b815260206004820152601d60248201527f536b696c6c52656769737472793a20696e76616c696420646f6d61696e000000604482015260640161035d565b856104745760405162461bcd60e51b815260206004820152602160248201527f536b696c6c52656769737472793a20656d7074792073746f72616765206861736044820152600d60fb1b606482015260840161035d565b836104c15760405162461bcd60e51b815260206004820152601960248201527f536b696c6c52656769737472793a20656d707479206e616d6500000000000000604482015260640161035d565b6040518061016001604052808a8152602001898152602001336001600160a01b0316815260200188888080601f016020809104026020016040519081016040528093929190818152602001838380828437600092019190915250505090825250604080516020601f890181900481028201810190925287815291810191908890889081908401838280828437600092018290525093855250505060ff861660208084019190915263ffffffff868116604080860191909152908616606080860191909152608085018490526001600160401b03421660a0860152600160c09095018590528e845283835292819020855181559185015193820193909355918301516002830180546001600160a01b0319166001600160a01b0390921691909117905582015160038201906105f590826116eb565b506080820151600482019061060a90826116eb565b5060a0820151600591909101805460c084015160e0850151610100808701516101208801516101409098015160ff97881664ffffffffff199096169590951763ffffffff9485169092029190911770ffffffffffffffffffffffff00000000001916600160281b939092169290920270ffffffffffffffff000000000000000000191617600160481b6001600160401b03928316021768ffffffffffffffffff60881b1916600160881b919095160260ff60c81b191693909317600160c81b93151593909302929092179091558316600090815260016020818152604083208054928301815583528220018a90556003805491610706836117c0565b9091555050871580159061073a5750600088815260208190526040902060050154600160881b90046001600160401b031615155b1561078657600088815260208190526040808220600501805460ff60c81b19169055518a918a917f22e285ede0b2ccc673215dbb923745a7fadc5052fc363be991c56f0aeeae257c9190a35b336001600160a01b0316888a7fb62a366e5c331186b95708ede53688aee822fbc348df4af93d7a9c3fb90e125888888888888f8f6040516107cd9796959493929190611802565b60405180910390a4505050505050505050565b6005546001600160a01b031633146108355760405162461bcd60e51b815260206004820152601860248201527729b5b4b6362932b3b4b9ba393c9d103737ba1037bbb732b960411b604482015260640161035d565b600480546001600160a01b0319166001600160a01b0392909216919091179055565b60606000825b801580159061088c5750600081815260208190526040902060050154600160881b90046001600160401b031615155b156108b8578161089b816117c0565b6000928352602083905260409092206001015491925061085d9050565b816001600160401b038111156108d0576108d061164a565b6040519080825280602002602001820160405280156108f9578160200160208202803683370190505b50925083905060005b82811015610946578184828151811061091d5761091d611854565b602090810291909101810191909152600092835282905260409091206001908101549101610902565b505050919050565b60648163ffffffff1611156109a55760405162461bcd60e51b815260206004820152601c60248201527f536b696c6c52656769737472793a20696e76616c69642073636f726500000000604482015260640161035d565b600082815260208190526040812060058101549091600160881b9091046001600160401b03169003610a195760405162461bcd60e51b815260206004820152601e60248201527f536b696c6c52656769737472793a20736b696c6c206e6f7420666f756e640000604482015260640161035d565b60028101546001600160a01b03163314610a755760405162461bcd60e51b815260206004820152601d60248201527f536b696c6c52656769737472793a206e6f74206f726967696e61746f72000000604482015260640161035d565b60058101805468ffffffff00000000001916600160281b63ffffffff85169081029190911790915560405190815283907f504c0fd1a0a30055a351a9e3d86aa17a46a206bc1437638445c428203e6aa8429060200160405180910390a2505050565b600082815260208190526040812060058101549091600160881b9091046001600160401b03169003610b4b5760405162461bcd60e51b815260206004820152601e60248201527f536b696c6c52656769737472793a20736b696c6c206e6f7420666f756e640000604482015260640161035d565b60028101546001600160a01b0390811690831603610bab5760405162461bcd60e51b815260206004820152601a60248201527f536b696c6c52656769737472793a2073656c662d696d706f7274000000000000604482015260640161035d565b600581018054600160481b90046001600160401b0316906009610bcd8361186a565b82546001600160401b039182166101009390930a9283029190920219909116179055506002818101546001600160a01b03166000908152602091909152604081208054662386f26fc100009290610c25908490611890565b90915550506004546001600160a01b031615610cae576004805460028301546040516340c10f1960e01b81526001600160a01b0391821693810193909352662386f26fc10000602484015216906340c10f1990604401600060405180830381600087803b158015610c9557600080fd5b505af1158015610ca9573d6000803e3d6000fd5b505050505b6002810154604051662386f26fc1000081526001600160a01b039182169184169085907f7df7352ed7f4142b9a927aef8e88d4396f5355a871e0fad00c4c35c6ad6ea0959060200160405180910390a4505050565b60ff831660009081526001602052604081206060919081805b8254811015610d7f57600080848381548110610d3a57610d3a611854565b9060005260206000200154815260200190815260200160002060050160199054906101000a900460ff1615610d775781610d73816117c0565b9250505b600101610d1c565b506000816001600160401b03811115610d9a57610d9a61164a565b604051908082528060200260200182016040528015610dc3578160200160208202803683370190505b5090506000805b8454811015610e6757600080868381548110610de857610de8611854565b9060005260206000200154815260200190815260200160002060050160199054906101000a900460ff1615610e5f57848181548110610e2957610e29611854565b9060005260206000200154838380610e40906117c0565b945081518110610e5257610e52611854565b6020026020010181815250505b600101610dca565b5060015b8251811015610fab576000838281518110610e8857610e88611854565b6020908102919091018101516000818152918290526040822060050154909250600160281b900463ffffffff1690610ec16001856118a9565b90505b60008112158015610f1e57508163ffffffff16600080888481518110610eec57610eec611854565b6020026020010151815260200190815260200160002060050160059054906101000a900463ffffffff1663ffffffff16105b15610f7857858181518110610f3557610f35611854565b602002602001015186826001610f4b91906118d0565b81518110610f5b57610f5b611854565b602090810291909101015280610f70816118f8565b915050610ec4565b8286610f858360016118d0565b81518110610f9557610f95611854565b6020908102919091010152505050600101610e6b565b50600082518910610fbd578251610fbf565b885b9050600083518983610fd19190611890565b10610fdd578351610fe7565b610fe78983611890565b9050610ff38282611915565b6001600160401b0381111561100a5761100a61164a565b604051908082528060200260200182016040528015611033578160200160208202803683370190505b509750815b8181101561108a5784818151811061105257611052611854565b60200260200101518984836110679190611915565b8151811061107757611077611854565b6020908102919091010152600101611038565b509395505050505050935093915050565b6000602081905290815260409020805460018201546002830154600384018054939492936001600160a01b0390921692916110d590611660565b80601f016020809104026020016040519081016040528092919081815260200182805461110190611660565b801561114e5780601f106111235761010080835404028352916020019161114e565b820191906000526020600020905b81548152906001019060200180831161113157829003601f168201915b50505050509080600401805461116390611660565b80601f016020809104026020016040519081016040528092919081815260200182805461118f90611660565b80156111dc5780601f106111b1576101008083540402835291602001916111dc565b820191906000526020600020905b8154815290600101906020018083116111bf57829003601f168201915b5050506005909301549192505060ff8082169163ffffffff6101008204811692600160281b8304909116916001600160401b03600160481b8204811692600160881b830490911691600160c81b9004168b565b6005546001600160a01b031633146112845760405162461bcd60e51b815260206004820152601860248201527729b5b4b6362932b3b4b9ba393c9d103737ba1037bbb732b960411b604482015260640161035d565b6001600160a01b0381166112da5760405162461bcd60e51b815260206004820152601b60248201527f536b696c6c52656769737472793a207a65726f20616464726573730000000000604482015260640161035d565b600580546001600160a01b0319166001600160a01b0392909216919091179055565b60008083601f84011261130e57600080fd5b5081356001600160401b0381111561132557600080fd5b60208301915083602082850101111561133d57600080fd5b9250929050565b803560ff8116811461135557600080fd5b919050565b803563ffffffff8116811461135557600080fd5b600080600080600080600080600060e08a8c03121561138c57600080fd5b8935985060208a0135975060408a01356001600160401b03808211156113b157600080fd5b6113bd8d838e016112fc565b909950975060608c01359150808211156113d657600080fd5b506113e38c828d016112fc565b90965094506113f6905060808b01611344565b925061140460a08b0161135a565b915061141260c08b0161135a565b90509295985092959850929598565b80356001600160a01b038116811461135557600080fd5b60006020828403121561144a57600080fd5b61145382611421565b9392505050565b60006020828403121561146c57600080fd5b5035919050565b60008151808452602080850194506020840160005b838110156114a457815187529582019590820190600101611488565b509495945050505050565b6020815260006114536020830184611473565b600080604083850312156114d557600080fd5b823591506114e56020840161135a565b90509250929050565b6000806040838503121561150157600080fd5b823591506114e560208401611421565b60008060006060848603121561152657600080fd5b61152f84611344565b95602085013595506040909401359392505050565b6040815260006115576040830185611473565b90508260208301529392505050565b6000815180845260005b8181101561158c57602081850181015186830182015201611570565b506000602082860101526020601f19601f83011685010191505092915050565b8b8152602081018b90526001600160a01b038a166040820152610160606082018190526000906115de8382018c611566565b905082810360808401526115f2818b611566565b60ff8a1660a085015263ffffffff89811660c0860152881660e08501526001600160401b038781166101008601528616610120850152841515610140850152915061163a9050565b9c9b505050505050505050505050565b634e487b7160e01b600052604160045260246000fd5b600181811c9082168061167457607f821691505b60208210810361169457634e487b7160e01b600052602260045260246000fd5b50919050565b601f8211156116e6576000816000526020600020601f850160051c810160208610156116c35750805b601f850160051c820191505b818110156116e2578281556001016116cf565b5050505b505050565b81516001600160401b038111156117045761170461164a565b611718816117128454611660565b8461169a565b602080601f83116001811461174d57600084156117355750858301515b600019600386901b1c1916600185901b1785556116e2565b600085815260208120601f198616915b8281101561177c5788860151825594840194600190910190840161175d565b508582101561179a5787850151600019600388901b60f8161c191681555b5050505050600190811b01905550565b634e487b7160e01b600052601160045260246000fd5b6000600182016117d2576117d26117aa565b5060010190565b81835281816020850137506000828201602090810191909152601f909101601f19169091010190565b60a08152600061181660a08301898b6117d9565b60ff8816602084015263ffffffff87811660408501528616606084015282810360808401526118468185876117d9565b9a9950505050505050505050565b634e487b7160e01b600052603260045260246000fd5b60006001600160401b03808316818103611886576118866117aa565b6001019392505050565b808201808211156118a3576118a36117aa565b92915050565b81810360008312801583831316838312821617156118c9576118c96117aa565b5092915050565b80820182811260008312801582168215821617156118f0576118f06117aa565b505092915050565b6000600160ff1b820161190d5761190d6117aa565b506000190190565b818103818111156118a3576118a36117aa56fea2646970667358221220386fbc3a7e048da03155eea3b2364c782fd6a345ffe0d75dccd2ae0f6952748d64736f6c63430008180033","linkReferences":{}},"methodIdentifiers":{"DOMAIN_CODING()":"17adc565","DOMAIN_COMMUNICATION()":"87a374f9","DOMAIN_DATA_ANALYSIS()":"2d2bfd6d","DOMAIN_GENERAL()":"3bc06c06","DOMAIN_PLANNING()":"d969878d","DOMAIN_REASONING()":"320f2a05","DOMAIN_RESEARCH()":"83634b93","DOMAIN_WEB_BROWSING()":"3c6db1d3","REWARD_PER_IMPORT()":"9774630d","getLineage(bytes32)":"49f2d22c","getTopSkills(uint8,uint256,uint256)":"b839e868","owner()":"8da5cb5b","pendingRewards(address)":"31d7a262","recordImport(bytes32,address)":"59c6960a","registerSkill(bytes32,bytes32,string,string,uint8,uint32,uint32)":"21d6f4be","setSkillToken(address)":"2c3273f6","skillTokenAddress()":"0a4d5360","skills(bytes32)":"ee3dadbd","totalSkills()":"db7be76c","transferOwnership(address)":"f2fde38b","updateFitness(bytes32,uint32)":"4d253ae8"},"id":0}